{
  "contractName": "Betting",
  "abi": [
    {
      "inputs": [],
      "stateMutability": "nonpayable",
      "type": "constructor"
    },
    {
      "inputs": [],
      "name": "maximumAmountOfBets",
      "outputs": [
        {
          "internalType": "uint256",
          "name": "",
          "type": "uint256"
        }
      ],
      "stateMutability": "view",
      "type": "function",
      "constant": true
    },
    {
      "inputs": [],
      "name": "minimumBet",
      "outputs": [
        {
          "internalType": "uint256",
          "name": "",
          "type": "uint256"
        }
      ],
      "stateMutability": "view",
      "type": "function",
      "constant": true
    },
    {
      "inputs": [],
      "name": "numberOfBets",
      "outputs": [
        {
          "internalType": "uint256",
          "name": "",
          "type": "uint256"
        }
      ],
      "stateMutability": "view",
      "type": "function",
      "constant": true
    },
    {
      "inputs": [
        {
          "internalType": "address",
          "name": "",
          "type": "address"
        }
      ],
      "name": "playerInfo",
      "outputs": [
        {
          "internalType": "uint256",
          "name": "amountBet",
          "type": "uint256"
        },
        {
          "internalType": "uint16",
          "name": "teamSelected",
          "type": "uint16"
        }
      ],
      "stateMutability": "view",
      "type": "function",
      "constant": true
    },
    {
      "inputs": [
        {
          "internalType": "uint256",
          "name": "",
          "type": "uint256"
        }
      ],
      "name": "players",
      "outputs": [
        {
          "internalType": "address payable",
          "name": "",
          "type": "address"
        }
      ],
      "stateMutability": "view",
      "type": "function",
      "constant": true
    },
    {
      "inputs": [],
      "name": "totalBetsOne",
      "outputs": [
        {
          "internalType": "uint256",
          "name": "",
          "type": "uint256"
        }
      ],
      "stateMutability": "view",
      "type": "function",
      "constant": true
    },
    {
      "inputs": [],
      "name": "totalBetsTwo",
      "outputs": [
        {
          "internalType": "uint256",
          "name": "",
          "type": "uint256"
        }
      ],
      "stateMutability": "view",
      "type": "function",
      "constant": true
    },
    {
      "inputs": [
        {
          "internalType": "address",
          "name": "player",
          "type": "address"
        }
      ],
      "name": "checkPlayerExists",
      "outputs": [
        {
          "internalType": "bool",
          "name": "",
          "type": "bool"
        }
      ],
      "stateMutability": "view",
      "type": "function",
      "constant": true
    },
    {
      "inputs": [
        {
          "internalType": "uint8",
          "name": "_teamSelected",
          "type": "uint8"
        }
      ],
      "name": "makeBet",
      "outputs": [],
      "stateMutability": "payable",
      "type": "function",
      "payable": true
    },
    {
      "inputs": [
        {
          "internalType": "uint16",
          "name": "teamWinner",
          "type": "uint16"
        }
      ],
      "name": "distributePrizes",
      "outputs": [],
      "stateMutability": "nonpayable",
      "type": "function"
    },
    {
      "inputs": [],
      "name": "AmountOne",
      "outputs": [
        {
          "internalType": "uint256",
          "name": "",
          "type": "uint256"
        }
      ],
      "stateMutability": "view",
      "type": "function",
      "constant": true
    },
    {
      "inputs": [],
      "name": "AmountTwo",
      "outputs": [
        {
          "internalType": "uint256",
          "name": "",
          "type": "uint256"
        }
      ],
      "stateMutability": "view",
      "type": "function",
      "constant": true
    }
  ],
  "bytecode": "0x60806040526103e860045534801561001657600080fd5b50655af3107a4000600081905550610feb806100336000396000f3fe6080604052600436106100a75760003560e01c80635bf6b19f116100645780635bf6b19f146101c457806365733592146101ef5780637904f6881461021a5780638afadeb514610243578063c38a8afd1461026e578063f71d96cb14610299576100a7565b8063043336bf146100ac578063128737e3146100c85780632ca8c6d3146100f35780634081d9161461011e5780634996d51d1461015b5780634b11469114610186575b600080fd5b6100c660048036038101906100c19190610b6e565b6102d6565b005b3480156100d457600080fd5b506100dd6104b5565b6040516100ea9190610c8f565b60405180910390f35b3480156100ff57600080fd5b506101086104bb565b6040516101159190610c8f565b60405180910390f35b34801561012a57600080fd5b5061014560048036038101906101409190610af3565b6104c1565b6040516101529190610c34565b60405180910390f35b34801561016757600080fd5b50610170610596565b60405161017d9190610c8f565b60405180910390f35b34801561019257600080fd5b506101ad60048036038101906101a89190610af3565b6105a0565b6040516101bb929190610caa565b60405180910390f35b3480156101d057600080fd5b506101d96105d2565b6040516101e69190610c8f565b60405180910390f35b3480156101fb57600080fd5b506102046105d8565b6040516102119190610c8f565b60405180910390f35b34801561022657600080fd5b50610241600480360381019061023c9190610b1c565b6105e2565b005b34801561024f57600080fd5b506102586109f2565b6040516102659190610c8f565b60405180910390f35b34801561027a57600080fd5b506102836109f8565b6040516102909190610c8f565b60405180910390f35b3480156102a557600080fd5b506102c060048036038101906102bb9190610b45565b6109fe565b6040516102cd9190610c19565b60405180910390f35b6102df336104c1565b1561031f576040517f08c379a000000000000000000000000000000000000000000000000000000000815260040161031690610c6f565b60405180910390fd5b600054341015610364576040517f08c379a000000000000000000000000000000000000000000000000000000000815260040161035b90610c4f565b60405180910390fd5b34600660003373ffffffffffffffffffffffffffffffffffffffff1673ffffffffffffffffffffffffffffffffffffffff168152602001908152602001600020600001819055508060ff16600660003373ffffffffffffffffffffffffffffffffffffffff1673ffffffffffffffffffffffffffffffffffffffff16815260200190815260200160002060010160006101000a81548161ffff021916908361ffff1602179055506005339080600181540180825580915050600190039060005260206000200160009091909190916101000a81548173ffffffffffffffffffffffffffffffffffffffff021916908373ffffffffffffffffffffffffffffffffffffffff16021790555060018160ff16141561049857346001600082825461048c9190610ce4565b925050819055506104b2565b34600260008282546104aa9190610ce4565b925050819055505b50565b60045481565b60035481565b600080600090505b60058054905081101561058b578273ffffffffffffffffffffffffffffffffffffffff1660058281548110610527577f4e487b7100000000000000000000000000000000000000000000000000000000600052603260045260246000fd5b9060005260206000200160009054906101000a900473ffffffffffffffffffffffffffffffffffffffff1673ffffffffffffffffffffffffffffffffffffffff161415610578576001915050610591565b808061058390610e3a565b9150506104c9565b50600090505b919050565b6000600154905090565b60066020528060005260406000206000915090508060000154908060010160009054906101000a900461ffff16905082565b60025481565b6000600254905090565b6105ea610a3d565b60008060008080600080600090505b6005805490508110156107615760058181548110610640577f4e487b7100000000000000000000000000000000000000000000000000000000600052603260045260246000fd5b9060005260206000200160009054906101000a900473ffffffffffffffffffffffffffffffffffffffff1691508861ffff16600660008473ffffffffffffffffffffffffffffffffffffffff1673ffffffffffffffffffffffffffffffffffffffff16815260200190815260200160002060010160009054906101000a900461ffff1661ffff16141561074e578188886103e88110610708577f4e487b7100000000000000000000000000000000000000000000000000000000600052603260045260246000fd5b602002019073ffffffffffffffffffffffffffffffffffffffff16908173ffffffffffffffffffffffffffffffffffffffff1681525050868061074a90610e3a565b9750505b808061075990610e3a565b9150506105f9565b5060018861ffff16141561077e5760025494506001549350610789565b600154945060025493505b60005b8681101561096257600073ffffffffffffffffffffffffffffffffffffffff1688826103e881106107e6577f4e487b7100000000000000000000000000000000000000000000000000000000600052603260045260246000fd5b602002015173ffffffffffffffffffffffffffffffffffffffff16146108485787816103e88110610840577f4e487b7100000000000000000000000000000000000000000000000000000000600052603260045260246000fd5b602002015193505b600660008573ffffffffffffffffffffffffffffffffffffffff1673ffffffffffffffffffffffffffffffffffffffff16815260200190815260200160002060000154925087816103e881106108c7577f4e487b7100000000000000000000000000000000000000000000000000000000600052603260045260246000fd5b602002015173ffffffffffffffffffffffffffffffffffffffff166108fc612710876127108a6108f79190610d6b565b6109019190610d3a565b61271061090e9190610ce4565b866109199190610d6b565b6109239190610d3a565b9081150290604051600060405180830381858888f1935050505015801561094e573d6000803e3d6000fd5b50808061095a90610e3a565b91505061078c565b50600660008273ffffffffffffffffffffffffffffffffffffffff1673ffffffffffffffffffffffffffffffffffffffff1681526020019081526020016000206000808201600090556001820160006101000a81549061ffff02191690555050600560006109d09190610a61565b6000945060009350600060018190555060006002819055505050505050505050565b60015481565b60005481565b60058181548110610a0e57600080fd5b906000526020600020016000915054906101000a900473ffffffffffffffffffffffffffffffffffffffff1681565b60405180617d0001604052806103e890602082028036833780820191505090505090565b5080546000825590600052602060002090810190610a7f9190610a82565b50565b5b80821115610a9b576000816000905550600101610a83565b5090565b600081359050610aae81610f59565b92915050565b600081359050610ac381610f70565b92915050565b600081359050610ad881610f87565b92915050565b600081359050610aed81610f9e565b92915050565b600060208284031215610b0557600080fd5b6000610b1384828501610a9f565b91505092915050565b600060208284031215610b2e57600080fd5b6000610b3c84828501610ab4565b91505092915050565b600060208284031215610b5757600080fd5b6000610b6584828501610ac9565b91505092915050565b600060208284031215610b8057600080fd5b6000610b8e84828501610ade565b91505092915050565b610ba081610dd7565b82525050565b610baf81610de9565b82525050565b6000610bc2602583610cd3565b9150610bcd82610ee1565b604082019050919050565b6000610be5601483610cd3565b9150610bf082610f30565b602082019050919050565b610c0481610df5565b82525050565b610c1381610e23565b82525050565b6000602082019050610c2e6000830184610b97565b92915050565b6000602082019050610c496000830184610ba6565b92915050565b60006020820190508181036000830152610c6881610bb5565b9050919050565b60006020820190508181036000830152610c8881610bd8565b9050919050565b6000602082019050610ca46000830184610c0a565b92915050565b6000604082019050610cbf6000830185610c0a565b610ccc6020830184610bfb565b9392505050565b600082825260208201905092915050565b6000610cef82610e23565b9150610cfa83610e23565b9250827fffffffffffffffffffffffffffffffffffffffffffffffffffffffffffffffff03821115610d2f57610d2e610e83565b5b828201905092915050565b6000610d4582610e23565b9150610d5083610e23565b925082610d6057610d5f610eb2565b5b828204905092915050565b6000610d7682610e23565b9150610d8183610e23565b9250817fffffffffffffffffffffffffffffffffffffffffffffffffffffffffffffffff0483118215151615610dba57610db9610e83565b5b828202905092915050565b6000610dd082610e03565b9050919050565b6000610de282610e03565b9050919050565b60008115159050919050565b600061ffff82169050919050565b600073ffffffffffffffffffffffffffffffffffffffff82169050919050565b6000819050919050565b600060ff82169050919050565b6000610e4582610e23565b91507fffffffffffffffffffffffffffffffffffffffffffffffffffffffffffffffff821415610e7857610e77610e83565b5b600182019050919050565b7f4e487b7100000000000000000000000000000000000000000000000000000000600052601160045260246000fd5b7f4e487b7100000000000000000000000000000000000000000000000000000000600052601260045260246000fd5b7f596f75206d75737420626574206174206c6561737420746865206d696e696d7560008201527f6d20626574000000000000000000000000000000000000000000000000000000602082015250565b7f596f75206861766520616c726561647920626574000000000000000000000000600082015250565b610f6281610dc5565b8114610f6d57600080fd5b50565b610f7981610df5565b8114610f8457600080fd5b50565b610f9081610e23565b8114610f9b57600080fd5b50565b610fa781610e2d565b8114610fb257600080fd5b5056fea26469706673582212202bc25bd9774edad3ba4ff78a56a39a48cf616d590ae06a6592958a60aee3aa4e64736f6c63430008040033",
  "immutableReferences": {},
  "source": "// contracts/Betting.sol\n// SPDX-License-Identifier: MIT\npragma solidity ^0.8.0;\n\n// import \"@openzeppelin/contracts/access/Ownable.sol\";\n\ncontract Betting {\n    uint256 public minimumBet;\n    uint256 public totalBetsOne;\n    uint256 public totalBetsTwo;\n    uint256 public numberOfBets;\n    uint256 public maximumAmountOfBets = 1000;\n\n    address payable[] public players;\n\n    struct Player {\n        uint256 amountBet;\n        uint16 teamSelected;\n    }\n\n    // Address of the player and => the user info\n    mapping(address => Player) public playerInfo;\n\n    constructor() {\n        minimumBet = 100000000000000;\n    }\n\n    function checkPlayerExists(address player) public view returns (bool) {\n        for (uint256 i = 0; i < players.length; i++) {\n            if (players[i] == player) return true;\n        }\n        return false;\n    }\n\n    function makeBet(uint8 _teamSelected) public payable {\n        require(!checkPlayerExists(msg.sender), \"You have already bet\");\n        require(msg.value >= minimumBet, \"You must bet at least the minimum bet\");\n\n        //We set the player informations : amount of the bet and selected team\n        playerInfo[msg.sender].amountBet = msg.value;\n        playerInfo[msg.sender].teamSelected = _teamSelected;\n\n        //then we add the address of the player to the players array\n        players.push(payable(msg.sender));\n\n        //at the end, we increment the stakes of the team selected with the player bet\n        if (_teamSelected == 1) {\n            totalBetsOne += msg.value;\n        } else {\n            totalBetsTwo += msg.value;\n        }\n    }\n\n    function distributePrizes(uint16 teamWinner) public {\n        address payable[1000] memory winners;\n        //We have to create a temporary in memory array with fixed size\n        //Let's choose 1000\n        uint256 count = 0; // This is the count for the array of winners\n        uint256 loserBet = 0; //This will take the value of all losers bet\n        uint256 winnerBet = 0; //This will take the value of all winners bet\n        address add;\n        uint256 bet;\n        address payable playerAddress;\n\n        //We loop through the player array to check who selected the winner team\n        for (uint256 i = 0; i < players.length; i++) {\n            playerAddress = players[i];\n            //If the player selected the winner team\n            //We add his address to the winners array\n            if (playerInfo[playerAddress].teamSelected == teamWinner) {\n                winners[count] = playerAddress;\n                count++;\n            }\n        }\n        //We define which bet sum is the Loser one and which one is the winner\n        if (teamWinner == 1) {\n            loserBet = totalBetsTwo;\n            winnerBet = totalBetsOne;\n        } else {\n            loserBet = totalBetsOne;\n            winnerBet = totalBetsTwo;\n        }\n\n        //We loop through the array of winners, to give ethers to the winners\n        for (uint256 j = 0; j < count; j++) {\n            // Check that the address in this fixed array is not empty\n            if (winners[j] != address(0)) add = winners[j];\n            bet = playerInfo[add].amountBet;\n            //Transfer the money to the user\n            winners[j].transfer(\n                (bet * (10000 + ((loserBet * 10000) / winnerBet))) / 10000\n            );\n        }\n\n        delete playerInfo[playerAddress]; // Delete all the players\n        delete players; // Delete all the players array\n        loserBet = 0; //reinitialize the bets\n        winnerBet = 0;\n        totalBetsOne = 0;\n        totalBetsTwo = 0;\n    }\n\n    function AmountOne() public view returns (uint256) {\n        return totalBetsOne;\n    }\n\n    function AmountTwo() public view returns (uint256) {\n        return totalBetsTwo;\n    }\n}\n",
  "sourcePath": "/Users/jack.rudelic/projects/ethereum/snakes-dapp/contracts/Betting.sol",
  "compiler": {
    "name": "solc",
    "version": "0.8.4+commit.c7e474f2.Emscripten.clang"
  },
  "schemaVersion": "3.4.3",
  "updatedAt": "2021-11-30T12:15:18.344Z",
  "networkType": "ethereum",
  "devdoc": {
    "kind": "dev",
    "methods": {},
    "version": 1
  },
  "userdoc": {
    "kind": "user",
    "methods": {},
    "version": 1
  }
}